:020000040800F2
:10000000C806002089010008B70D0008790C000817
:10001000B50D00088F0200081F0E00080000000048
:10002000000000000000000000000000BB0D000800
:100030009102000800000000B90D0008BD0D000885
:10004000A3010008A3010008A3010008A301000800
:10005000A3010008A3010008A3010008A3010008F0
:10006000A3010008A3010008A3010008A3010008E0
:10007000A3010008A3010008A3010008A3010008D0
:10008000A3010008A3010008A3010008A3010008C0
:10009000A3010008A3010008A3010008A3010008B0
:1000A000A3010008A3010008A3010008A3010008A0
:1000B000A3010008A3010008A3010008A301000890
:1000C000A3010008A3010008A3010008A301000880
:1000D000A3010008A3010008A3010008A301000870
:1000E000A3010008A3010008A301000800F002F822
:1000F00000F03AF80AA090E8000C82448344AAF188
:100100000107DA4501D100F02FF8AFF2090EBAE885
:100110000F0013F0010F18BFFB1A43F0010318473B
:10012000AC0D0000CC0D0000103A24BF78C878C197
:10013000FAD8520724BF30C830C144BF04680C60ED
:10014000704700000023002400250026103A28BF35
:1001500078C1FBD8520728BF30C148BF0B60704739
:100160001FB51FBD10B510BD00F058F81146FFF7C0
:10017000F7FF00F065FE00F076F803B4FFF7F2FF3A
:1001800003BC00F07DF8000009488047094800479B
:10019000FEE7FEE7FEE7FEE7FEE7FEE7FEE7FEE737
:1001A000FEE7FEE704480549054A064B7047000094
:1001B0001D0E0008ED000008C8000020C806002041
:1001C000C8020020C80200204FF0000200B513460C
:1001D00094469646203922BFA0E80C50A0E80C5067
:1001E000B1F12001BFF4F7AF090728BFA0E80C5018
:1001F00048BF0CC05DF804EB890028BF40F8042B11
:1002000008BF704748BF20F8022B11F0804F18BF7D
:1002100000F8012B7047704770477047754600F033
:100220002BF8AE4605006946534620F00700854688
:1002300018B020B5FFF7B6FFBDE820404FF000062C
:100240004FF000074FF000084FF0000B21F00701BE
:10025000AC46ACE8C009ACE8C009ACE8C009ACE801
:10026000C0098D46704710B50446AFF300802046A4
:10027000BDE81040FFF781BF0048704764000020D0
:1002800001491820ABBEFEE7260002007047FEE7DA
:100290007047000070B5044600F004F90546601C84
:1002A00002D004480078044400F0FCF8401BA0424F
:1002B000FAD370BD000000202DE9F84FDFF8B891A7
:1002C0000024A9F1040B23460F2709F1040AABF11E
:1002D000040EC9E00125A5402A40AA427DD1674EFF
:1002E000D1F804C0ACEB0608B44532D014DCBCF144
:1002F000030F3AD009DCBCF1000F2AD0BCF1010F8A
:100300001CD0BCF1020F31D11DE0BCF1110F17D090
:10031000BCF1120F2AD119E0B8F5881F19D006DCFC
:10032000B8F5803F15D0B8F5801F1FD111E0B8F5A2
:10033000001F0ED0B8F5041F18D10AE0CB6815E0F5
:10034000CB681B1D12E0CB6808330FE0CB680C3381
:100350000CE08B682BB1012B4FF0080303D04561F3
:1003600004E0042302E0056100E00023FF2A01D835
:10037000064601E000F104064FEA840501D9A5F123
:100380002005D6F8008007FA05FC28EA0C0803FAD5
:1003900005F548EA0508C6F800804D68ED0062D50D
:1003A000374DAE6946F00106AE61AD6924F0030633
:1003B00005F001050095334D06EB050CDCF80850FF
:1003C000A607360F07FA06F825EA0805DFF8B88011
:1003D000404503D14FF0000817E044E0DFF8AC805F
:1003E000404502D14FF001080FE0DFF8A4804045FE
:1003F00002D14FF0020808E0DFF89880404502D1B2
:100400004FF0030801E04FF0040808FA06F848EA44
:100410000508CCF808804D68D9F80060ED024D461B
:1004200001D5164300E096432E604D68DAF800606F
:10043000AD02554601D5164300E096432E604D6847
:10044000DBF80060AD035D4601D5164300E096433E
:100450002E604D68DEF80060ED03754601D5164349
:1004600000E096432E60641C0D682A46E5407FF448
:1004700031AFBDE8F88F0000080401400000111002
:10048000001002400000014000080140000C014043
:1004900000100140001401400AB1016170470904D5
:1004A000FBE7000001488068704700000000002062
:1004B00070B5040025D094F83D00002520B984F8DB
:1004C0003C50204600F0B8F8242084F83D00206815
:1004D000016821F0010101602068016841F40041D8
:1004E00001602068016821F40041016000F0EAF930
:1004F0004D4A6168914201D84C4900E04C4988421C
:1005000001D2012070BD4B492368B0FBF1F15E6858
:1005100026F03F060E435E606368934206D94FF4AF
:10052000967359434FF47A73B1FBF3F12368491C76
:100530001E6A26F03F06314319626168914210D865
:100540004900401EB0FBF1F2521CC2F30B02042A18
:1005500001D2042022E0B0FBF1F0401CC0F30B00FC
:100560001CE0A268F2B301EBC10303EB0116431ECA
:10057000B3FBF6F35B1C43F480431B0549D092B3F5
:1005800001EBC10202EB0111401EB0FBF1F0401C77
:10059000C0F30B0040F4804040F400402168CA6979
:1005A0004CF6FF739A431043C861D4E90710014326
:1005B0002068026822F0C00211430160D4E90301FF
:1005C00001432068826848F2FF339A4311438160F7
:1005D000D4E9050108432168CA6822F0FF021043EC
:1005E000C86001E00EE016E02068016841F00101FA
:1005F00001602564202084F83D00256384F83E5086
:10060000002070BD01EB4106431EB3FBF6F35B1CFB
:10061000B3E70120C2E701EB4101401EB0FBF1F05E
:10062000401CC0F30B00B7E7A086010080841E00C9
:1006300000093D0040420F0010B586B00021009136
:1006400001910291039100680F4988421AD10F4C21
:10065000A06940F00800A061A069694600F00800A8
:100660000490C020009012200190032003900848BD
:10067000FFF722FEE06940F40010E061E06900F459
:100680000010049006B010BD00540040001002405D
:10069000000C014002488168027811448160704773
:1006A00000000020074810B5016841F0100101600A
:1006B000032000F05FF80F2000F006F800F024F8A7
:1006C000002010BD0020024070B50D4D04464FF4CF
:1006D0007A712878B1FBF0F00A490968B1FBF0F0B3
:1006E00000F0B6FA48B9102C07D200222146501E5D
:1006F00000F020F800206C6070BD012070BD00008B
:10070000000000200C000020094808B5816941F074
:1007100001018161816901F001010091C16941F02C
:100720008051C161C06900F08050009008BD000098
:1007300000100240F0B40E4B1B680C46C3F30223BA
:10074000C3F10705042D00D90425191D072901D27D
:10075000002300E0DB1E012606FA05F1491E2140B8
:1007600099409E40761E16403143F0BC00F058BBC5
:100770000CED00E0064900F0070208684FF6FF03A1
:10078000184040EA0220034A104308607047000006
:100790000CED00E00000FA052DE9F0470F460500DA
:1007A00061D0434E306800F00700B84209D230688B
:1007B00020F0070038433060306800F00700B8428E
:1007C00051D128683B4C810712D5400703D560689A
:1007D00040F4E06060602878000703D5606840F46A
:1007E000605060606068A96820F0F00008436060B5
:1007F0002878C00728D06868012810D0216802280E
:1008000010D0890700292EDA616821F00301014325
:100810006160FFF747FE804641F288390DE02168AC
:100820008903EFE78901EDE7FFF73CFEA0EB080144
:10083000494502D90320BDE8F0876068696800F087
:100840000C00B0EB810FEFD1306800F00700B84228
:100850000BD9306820F0070038433060306800F072
:100860000700B84201D00120E5E72878400705D508
:100870006068E96820F4E060084360602878000759
:1008800006D56068296920F4605040EAC1006060C4
:1008900000F028F86168084AC1F30311515CC840B0
:1008A0000649086006480068FFF70EFF0020C2E70F
:1008B0000020024000100240B20E00080C00002090
:1008C000040000200448054900684968044AC1F34F
:1008D0000221515CC84070470C000020001002400B
:1008E000C20E00080E4A51680E4801F00C03042B9A
:1008F00011D0082B0FD10C48C1F38343C903C05C4E
:100900000AD55168084AC1F34041921E515C054A1C
:100910005043B0FBF1F07047044948437047000072
:100920000010024000127A00A20E000800093D00EB
:100930002DE9F84F040070D02078C04DC00749D091
:100940006868C0F38100012807D06868C0F381009F
:10095000022809D16868C00306D52868800339D504
:1009600060680028E7D035E06068B0F5803F0BD0C4
:1009700010B1B0F5A02F11D0286820F48030286085
:10098000286820F4802002E0286840F48030286045
:10099000606890B1FFF786FD06460AE0286840F4DB
:1009A00080202860F0E700BFFFF77CFD801B6428F3
:1009B00073D828688003F7D50CE0FFF773FD06466F
:1009C00005E000BFFFF76EFD801B6428F0D82868A3
:1009D0008003F7D420789A4E80074FF001094FF03A
:1009E000000839D5686810F00C0F07D06868C0F3AC
:1009F0008100022809D16868C00306D428688007EE
:100A000014D52069012808D110E02069B0B1C6F8DA
:100A10000090FFF747FD074605E00AE1FFF742FDBA
:100A2000C01B0228C4D828688007F7D528686169E8
:100A300020F0F80040EAC10028600DE0C6F8008010
:100A4000FFF730FD074604E0FFF72CFDC01B02282E
:100A500023D828688007F7D4207800072CD5794858
:100A6000A169D9B1C0F80090FFF71CFD074604E06A
:100A7000FFF718FDC01B02280FD8686A8007F7D55A
:100A800071484FF4FA510068B0FBF1F0009000BFDC
:100A90000098411E0091FAD20EE080E0C0F800807C
:100AA000FFF700FD074604E0FFF7FCFCC01B02282F
:100AB00075D8686A8007F7D42078400760D5E86960
:100AC0000027C00008D4E86940F08050E861E86978
:100AD000012700F0805000905C480168C90513D4DC
:100AE0000168834641F480710160FFF7DBFC8246B8
:100AF00006E000BFFFF7D6FCA0EB0A0064284ED842
:100B0000DBF80000C005F5D5E06801280AD008B17F
:100B1000052813D0286A20F001002862286A20F0F6
:100B2000040002E0286A40F001002862E06841F217
:100B3000883B98B1FFF7B6FC82460BE0286A40F08C
:100B400004002862EEE700BFFFF7ACFCA0EB0A014F
:100B500059455AD8286A8007F6D50CE0FFF7A2FC61
:100B6000824605E0FFF79EFCA0EB0A0159454CD8F0
:100B7000286A8007F6D41FB1E86920F08050E86148
:100B8000E06988B36968C1F38101022944D0022871
:100B9000C6F8608004D0FFF785FC044638E034E0F6
:100BA000FFF780FC074604E0FFF77CFCC01B02282F
:100BB0002BD828688001F7D4206AB0F5803F05D192
:100BC0006868A16820F4003008436860D4E908012F
:100BD0000843696821F4741108436860C6F860909E
:100BE000FFF760FC044606E025E000BFFFF75AFC73
:100BF000001B022809D828688001F7D51BE000BF38
:100C0000FFF750FC001B022802D90320BDE8F88F33
:100C100028688001F4D40EE00128F7D06868226AC1
:100C200000F48031914204D1616A00F4701088426E
:100C300001D00120EAE70020E8E7000000100240B0
:100C400000004242800442420C000020007000403C
:100C500010B5401EB0F1807F01D3012010BD4FF0D0
:100C6000E02460610F21601700F0DAF80020A06135
:100C700007202061002010BDFEE7000070B51A4C6F
:100C8000002201212046FFF707FC4FF47A75284621
:100C9000FFF700FB002202212046FFF7FDFB28465C
:100CA000FFF7F8FA002204212046FFF7F5FB28465B
:100CB000FFF7F0FA012211462046FFF7EDFB284628
:100CC000FFF7E8FA012202212046FFF7E5FB28465C
:100CD000FFF7E0FA012204212046FFF7DDFB28465A
:100CE000BDE87040FFF7D6BA0008014070B5144C5B
:100CF000002201212046FFF7CFFB002202212046DF
:100D0000FFF7CAFB4FF47A752846FFF7C3FA0122B2
:100D100011462046FFF7C0FB002204212046FFF7C2
:100D2000BBFB2846FFF7B6FA012202212046FFF757
:100D3000B3FB2046BDE8704001220421FFF7ACBBA5
:100D40000008014030B585B0002418480094019493
:100D500002940394816941F020018161816901F06D
:100D600020010491816941F004018161816901F0F0
:100D700004010491816941F00801816180690C4D91
:100D800000F008000490002207212846FFF784FBAA
:100D9000072000900120CDE901040220039069465C
:100DA0002846FFF789FA05B030BD00000010024068
:100DB00000080140FEE7FEE770477047FFF76ABC96
:100DC00030B58FB028216846FFF7FEF914210AA834
:100DD000FFF7FAF9022501200490009510200590F4
:100DE00000244FF46010CDE9084007956846FFF7EE
:100DF0009FFD08B172B6FEE70F20CDE90A054FF45A
:100E00008060CDE90C4002210AA80E94FFF7C4FCD3
:100E1000002801D072B6FEE70FB030BD7047FEE784
:100E20000907090E002804DB00F1E02080F8001417
:100E3000704700F00F0000F1E02080F8141D7047AB
:100E4000FFF730FCFFF7BCFFFFF77CFF12481149AA
:100E5000F0220160114941600021C0E902124FF403
:100E60008042C0E904218161C1610162FFF720FB7A
:100E700008B172B6FEE74FF4FA6400BFFFF7FEFE5A
:100E80002046FFF707FAFFF731FF2046FFF702FA87
:100E9000F4E700000054004010000020A08601008C
:100EA000010202030405060708090A0B0C0D0E0FC8
:100EB00010100000000000000000010203040607FB
:100EC000080900000000010203040000EC0E000805
:100ED000000000201000000028010008FC0E00089F
:100EE00010000020B80600004401000801000000C6
:0C0EF00010000000000000000024F400CE
:04000005080000ED02
:00000001FF
